:10000000CF93DF9300D000D0CDB7DEB769837A837A
:100010008B839C8300C089819A81AB81BC810197CD
:10002000A109B10989839A83AB83BC8389819A81B1
:10003000AB81BC81181619061A061B0604F080E075
:1000400090E00F900F900F900F90DF91CF91089557
:10005000CF93DF93CDB7DEB782E590E022E0FC01DD
:10006000208383E590E0FC01308183E590E022E08D
:100070002327FC01208368EE73E080E090E00E947B
:04008000000000C0BC
:00000001FF
